:0A00000025C0FECFFDCFFCCFFBCFE3
:10000A00FACFF9CFF8CFF7CFF6CFF5CFF4CFF3CFBA
:10001A00F2CFF1CFF0CFEFCFEECFEDCF1027E8033D
:10002A0064000A0001000010000110000100010034
:10003A002D4E414E00494E46000001006001380035
:10004A000000F894EE27ECBBF1E0FBBFEBBFE5BF85
:10005A008DE0A2E0BB27ED938A95E9F780E094E072
:10006A00A0E6ED930197E9F7E4E4F0E08591959134
:10007A00009761F0A591B59105901590BF01F00127
:10008A0005900D920197E1F7FB01F0CFEFE5EDBF87
:10009A00E4E0EEBFC0E6D1E000C08A988B9A829B6A
:1000AA0009C09398A4EFB1E009D0939AA4EFB1E004
:1000BA0005D002C0829B9398F2CFFFCF109639F0F9
:1000CA0080ED97E00197F1F7A8951197C9F7089580
:00000001FF
